{
    "_format": "hh-sol-artifact-1",
    "contractName": "PPV",
    "sourceName": "contracts/PPV.sol",
    "abi": [
        {
            "inputs": [],
            "stateMutability": "nonpayable",
            "type": "constructor"
        },
        {
            "inputs": [],
            "name": "InsufficientAmount",
            "type": "error"
        },
        {
            "inputs": [],
            "name": "TransactionIncomplete",
            "type": "error"
        },
        {
            "inputs": [
                {
                    "internalType": "address",
                    "name": "user",
                    "type": "address"
                }
            ],
            "name": "addAccessTime",
            "outputs": [],
            "stateMutability": "payable",
            "type": "function"
        },
        {
            "inputs": [
                {
                    "internalType": "string",
                    "name": "_name",
                    "type": "string"
                },
                {
                    "internalType": "string",
                    "name": "_fileHash",
                    "type": "string"
                },
                {
                    "internalType": "string",
                    "name": "_coverHash",
                    "type": "string"
                }
            ],
            "name": "addFileDetails",
            "outputs": [],
            "stateMutability": "nonpayable",
            "type": "function"
        },
        {
            "inputs": [
                {
                    "internalType": "address",
                    "name": "user",
                    "type": "address"
                }
            ],
            "name": "getAccessTime",
            "outputs": [
                {
                    "internalType": "uint256",
                    "name": "",
                    "type": "uint256"
                }
            ],
            "stateMutability": "view",
            "type": "function"
        },
        {
            "inputs": [],
            "name": "getAllFiles",
            "outputs": [
                {
                    "components": [
                        {
                            "internalType": "string",
                            "name": "name",
                            "type": "string"
                        },
                        {
                            "internalType": "string",
                            "name": "fileHash",
                            "type": "string"
                        },
                        {
                            "internalType": "string",
                            "name": "coverHash",
                            "type": "string"
                        }
                    ],
                    "internalType": "struct PPV.FileDetails[]",
                    "name": "",
                    "type": "tuple[]"
                }
            ],
            "stateMutability": "view",
            "type": "function"
        },
        {
            "inputs": [
                {
                    "internalType": "uint256",
                    "name": "id",
                    "type": "uint256"
                }
            ],
            "name": "getFile",
            "outputs": [
                {
                    "components": [
                        {
                            "internalType": "string",
                            "name": "name",
                            "type": "string"
                        },
                        {
                            "internalType": "string",
                            "name": "fileHash",
                            "type": "string"
                        },
                        {
                            "internalType": "string",
                            "name": "coverHash",
                            "type": "string"
                        }
                    ],
                    "internalType": "struct PPV.FileDetails",
                    "name": "",
                    "type": "tuple"
                }
            ],
            "stateMutability": "view",
            "type": "function"
        }
    ],
    "bytecode": "0x60a060405234801561001057600080fd5b503373ffffffffffffffffffffffffffffffffffffffff1660808173ffffffffffffffffffffffffffffffffffffffff168152505060805161117b6100606000396000610177015261117b6000f3fe60806040526004361061004a5760003560e01c80631a47d2311461004f5780632bfda3131461006b5780639589ce71146100a8578063de95bcb4146100e5578063ff24b5d51461010e575b600080fd5b6100696004803603810190610064919061085f565b610139565b005b34801561007757600080fd5b50610092600480360381019061008d91906108c2565b610284565b60405161009f91906109dd565b60405180910390f35b3480156100b457600080fd5b506100cf60048036038101906100ca919061085f565b610467565b6040516100dc9190610a0e565b60405180910390f35b3480156100f157600080fd5b5061010c60048036038101906101079190610b5e565b6104af565b005b34801561011a57600080fd5b50610123610541565b6040516101309190610d25565b60405180910390f35b60643414610173576040517f5945ea5600000000000000000000000000000000000000000000000000000000815260040160405180910390fd5b60007f000000000000000000000000000000000000000000000000000000000000000073ffffffffffffffffffffffffffffffffffffffff16346040516101b990610d78565b60006040518083038185875af1925050503d80600081146101f6576040519150601f19603f3d011682016040523d82523d6000602084013e6101fb565b606091505b50509050600015158115150361023d576040517f9bc0fde900000000000000000000000000000000000000000000000000000000815260040160405180910390fd5b426000808473ffffffffffffffffffffffffffffffffffffffff1673ffffffffffffffffffffffffffffffffffffffff168152602001908152602001600020819055505050565b61028c6107cc565b600160008381526020019081526020016000206040518060600160405290816000820180546102ba90610dbc565b80601f01602080910402602001604051908101604052809291908181526020018280546102e690610dbc565b80156103335780601f1061030857610100808354040283529160200191610333565b820191906000526020600020905b81548152906001019060200180831161031657829003601f168201915b5050505050815260200160018201805461034c90610dbc565b80601f016020809104026020016040519081016040528092919081815260200182805461037890610dbc565b80156103c55780601f1061039a576101008083540402835291602001916103c5565b820191906000526020600020905b8154815290600101906020018083116103a857829003601f168201915b505050505081526020016002820180546103de90610dbc565b80601f016020809104026020016040519081016040528092919081815260200182805461040a90610dbc565b80156104575780601f1061042c57610100808354040283529160200191610457565b820191906000526020600020905b81548152906001019060200180831161043a57829003601f168201915b5050505050815250509050919050565b60008060008373ffffffffffffffffffffffffffffffffffffffff1673ffffffffffffffffffffffffffffffffffffffff168152602001908152602001600020549050919050565b600260008154809291906104c290610e1c565b9190505550604051806060016040528084815260200183815260200182815250600160006002548152602001908152602001600020600082015181600001908161050c9190611010565b5060208201518160010190816105229190611010565b5060408201518160020190816105389190611010565b50905050505050565b6060600060025467ffffffffffffffff81111561056157610560610a33565b5b60405190808252806020026020018201604052801561059a57816020015b6105876107cc565b81526020019060019003908161057f5790505b5090506000600190505b60025481116107c4576000600160008381526020019081526020016000206040518060600160405290816000820180546105dd90610dbc565b80601f016020809104026020016040519081016040528092919081815260200182805461060990610dbc565b80156106565780601f1061062b57610100808354040283529160200191610656565b820191906000526020600020905b81548152906001019060200180831161063957829003601f168201915b5050505050815260200160018201805461066f90610dbc565b80601f016020809104026020016040519081016040528092919081815260200182805461069b90610dbc565b80156106e85780601f106106bd576101008083540402835291602001916106e8565b820191906000526020600020905b8154815290600101906020018083116106cb57829003601f168201915b5050505050815260200160028201805461070190610dbc565b80601f016020809104026020016040519081016040528092919081815260200182805461072d90610dbc565b801561077a5780601f1061074f5761010080835404028352916020019161077a565b820191906000526020600020905b81548152906001019060200180831161075d57829003601f168201915b5050505050815250509050808360018461079491906110e2565b815181106107a5576107a4611116565b5b60200260200101819052505080806107bc90610e1c565b9150506105a4565b508091505090565b60405180606001604052806060815260200160608152602001606081525090565b6000604051905090565b600080fd5b600080fd5b600073ffffffffffffffffffffffffffffffffffffffff82169050919050565b600061082c82610801565b9050919050565b61083c81610821565b811461084757600080fd5b50565b60008135905061085981610833565b92915050565b600060208284031215610875576108746107f7565b5b60006108838482850161084a565b91505092915050565b6000819050919050565b61089f8161088c565b81146108aa57600080fd5b50565b6000813590506108bc81610896565b92915050565b6000602082840312156108d8576108d76107f7565b5b60006108e6848285016108ad565b91505092915050565b600081519050919050565b600082825260208201905092915050565b60005b8381101561092957808201518184015260208101905061090e565b60008484015250505050565b6000601f19601f8301169050919050565b6000610951826108ef565b61095b81856108fa565b935061096b81856020860161090b565b61097481610935565b840191505092915050565b6000606083016000830151848203600086015261099c8282610946565b915050602083015184820360208601526109b68282610946565b915050604083015184820360408601526109d08282610946565b9150508091505092915050565b600060208201905081810360008301526109f7818461097f565b905092915050565b610a088161088c565b82525050565b6000602082019050610a2360008301846109ff565b92915050565b600080fd5b600080fd5b7f4e487b7100000000000000000000000000000000000000000000000000000000600052604160045260246000fd5b610a6b82610935565b810181811067ffffffffffffffff82111715610a8a57610a89610a33565b5b80604052505050565b6000610a9d6107ed565b9050610aa98282610a62565b919050565b600067ffffffffffffffff821115610ac957610ac8610a33565b5b610ad282610935565b9050602081019050919050565b82818337600083830152505050565b6000610b01610afc84610aae565b610a93565b905082815260208101848484011115610b1d57610b1c610a2e565b5b610b28848285610adf565b509392505050565b600082601f830112610b4557610b44610a29565b5b8135610b55848260208601610aee565b91505092915050565b600080600060608486031215610b7757610b766107f7565b5b600084013567ffffffffffffffff811115610b9557610b946107fc565b5b610ba186828701610b30565b935050602084013567ffffffffffffffff811115610bc257610bc16107fc565b5b610bce86828701610b30565b925050604084013567ffffffffffffffff811115610bef57610bee6107fc565b5b610bfb86828701610b30565b9150509250925092565b600081519050919050565b600082825260208201905092915050565b6000819050602082019050919050565b60006060830160008301518482036000860152610c4e8282610946565b91505060208301518482036020860152610c688282610946565b91505060408301518482036040860152610c828282610946565b9150508091505092915050565b6000610c9b8383610c31565b905092915050565b6000602082019050919050565b6000610cbb82610c05565b610cc58185610c10565b935083602082028501610cd785610c21565b8060005b85811015610d135784840389528151610cf48582610c8f565b9450610cff83610ca3565b925060208a01995050600181019050610cdb565b50829750879550505050505092915050565b60006020820190508181036000830152610d3f8184610cb0565b905092915050565b600081905092915050565b50565b6000610d62600083610d47565b9150610d6d82610d52565b600082019050919050565b6000610d8382610d55565b9150819050919050565b7f4e487b7100000000000000000000000000000000000000000000000000000000600052602260045260246000fd5b60006002820490506001821680610dd457607f821691505b602082108103610de757610de6610d8d565b5b50919050565b7f4e487b7100000000000000000000000000000000000000000000000000000000600052601160045260246000fd5b6000610e278261088c565b91507fffffffffffffffffffffffffffffffffffffffffffffffffffffffffffffffff8203610e5957610e58610ded565b5b600182019050919050565b60008190508160005260206000209050919050565b60006020601f8301049050919050565b600082821b905092915050565b600060088302610ec67fffffffffffffffffffffffffffffffffffffffffffffffffffffffffffffffff82610e89565b610ed08683610e89565b95508019841693508086168417925050509392505050565b6000819050919050565b6000610f0d610f08610f038461088c565b610ee8565b61088c565b9050919050565b6000819050919050565b610f2783610ef2565b610f3b610f3382610f14565b848454610e96565b825550505050565b600090565b610f50610f43565b610f5b818484610f1e565b505050565b5b81811015610f7f57610f74600082610f48565b600181019050610f61565b5050565b601f821115610fc457610f9581610e64565b610f9e84610e79565b81016020851015610fad578190505b610fc1610fb985610e79565b830182610f60565b50505b505050565b600082821c905092915050565b6000610fe760001984600802610fc9565b1980831691505092915050565b60006110008383610fd6565b9150826002028217905092915050565b611019826108ef565b67ffffffffffffffff81111561103257611031610a33565b5b61103c8254610dbc565b611047828285610f83565b600060209050601f83116001811461107a5760008415611068578287015190505b6110728582610ff4565b8655506110da565b601f19841661108886610e64565b60005b828110156110b05784890151825560018201915060208501945060208101905061108b565b868310156110cd57848901516110c9601f891682610fd6565b8355505b6001600288020188555050505b505050505050565b60006110ed8261088c565b91506110f88361088c565b92508282039050818111156111105761110f610ded565b5b92915050565b7f4e487b7100000000000000000000000000000000000000000000000000000000600052603260045260246000fdfea2646970667358221220e49a85f6b96bf7b40340f97f45f958b8275b48d3d1c73a216224df9915a8cec264736f6c63430008110033",
    "linkReferences": {},
    "deployedLinkReferences": {}
}